:020000040800F2
:1000000080060020D5010008AD0500085304000853
:10001000A905000821030008C1090008000000002C
:10002000000000000000000000000000A50600081D
:100030002503000800000000AF0500089107000834
:10004000EF010008EF010008EF010008EF010008D0
:10005000EF010008EF010008EF010008EF010008C0
:10006000EF010008EF010008EF010008EF010008B0
:10007000EF010008EF010008EF010008EF010008A0
:10008000EF010008EF010008EF010008EF01000890
:10009000EF010008EF010008EF010008EF01000880
:1000A000EF010008EF010008EF010008EF01000870
:1000B000EF010008EF010008EF010008EF01000860
:1000C000EF010008EF010008EF010008EF01000850
:1000D000EF010008EF010008EF010008EF01000840
:1000E000EF010008EF010008EF010008EF01000830
:1000F000EF010008EF010008EF010008EF01000820
:10010000EF010008EF010008EF010008EF0100080F
:10011000EF010008EF010008EF010008EF010008FF
:10012000EF010008EF010008EF010008EF010008EF
:1001300000F002F800F03AF80AA090E8000C8244BF
:100140008344AAF10107DA4501D100F02FF8AFF29C
:10015000090EBAE80F0013F0010F18BFFB1A43F0A5
:1001600001031847A4090000C4090000103A24BF85
:1001700078C878C1FAD8520724BF30C830C144BF0C
:1001800004680C607047000000230024002500264E
:10019000103A28BF78C1FBD8520728BF30C148BFEA
:1001A0000B6070471FB51FBD10B510BD00F072F891
:1001B0001146FFF7F7FF00F055FC00F0A4F803B478
:1001C000FFF7F2FF03BC00F0FDFB000080F308889E
:1001D000704700000948804709480047FEE7FEE7EE
:1001E000FEE7FEE7FEE7FEE7FEE7FEE7FEE7FEE7E7
:1001F00004480549054A064B70470000A907000856
:1002000031010008800000208006002080020020CC
:1002100080020020704700000FB4044910B503AA03
:10022000029800F009F810BC5DF814FB00000020F3
:100230007047704770477047074B70B50D467B4459
:1002400000F011F80446284600F020F810B14FF0F5
:10025000FF3070BD204670BD0708000001694A1CD0
:1002600002610878704700B58FB0CDE901310021F7
:10027000059105497944CDE903101146684600F01F
:100280002EF80FB000BD0000E5FFFFFF007B00F07F
:1002900080007047754600F03FF8AE46050069469D
:1002A000534620F00700854618B020B5FFF7A0FFA1
:1002B000BDE820404FF000064FF000074FF0000867
:1002C0004FF0000B21F00701AC46ACE8C009ACE8E8
:1002D000C009ACE8C009ACE8C0098D4670472DE9FB
:1002E000F04106460024D6E90170F56880463046A4
:1002F00003E04146B847641C3046A8470028F8D1BF
:100300002046BDE8F08110B50446AFF300802046DA
:10031000BDE81040FFF753BF004870471C000020A5
:1003200000BFFEE770472DE9F04102460025002698
:10033000002000230024002791F803C00CF00F05D3
:1003400091F803C00CF0100CBCF1000F03D091F831
:1003500002C04CEA050591F800C0BCF1000F31D095
:10036000146800202BE04FF0010C0CFA00F3B1F8F8
:1003700000C00CEA03069E4220D183004FF00F0C10
:100380000CFA03F7BC4305FA03FC4CEA040491F8A9
:1003900003C0BCF1280F06D14FF0010C0CFA00FC91
:1003A000C2F814C00AE091F803C0BCF1480F05D1AF
:1003B0004FF0010C0CFA00FCC2F810C0401C0828D9
:1003C000D1D31460B1F800C0BCF1FF0F34DD546824
:1003D00000202EE000F1080C4FF0010808FA0CF3A1
:1003E000B1F800C00CEA03069E4221D183004FF011
:1003F0000F0C0CFA03F7BC4305FA03FC4CEA0404A7
:1004000091F803C0BCF1280F05D100F1080C08FADF
:100410000CF8C2F8148091F803C0BCF1480F07D162
:1004200000F1080C4FF0010808FA0CF8C2F810802F
:10043000401C0828CED35460BDE8F081024600205D
:1004400093680B400BB1012000E000207047016170
:10045000704700BFFEE7000008B50121042000F04E
:10046000A7F80121402000F0A3F81820ADF8000003
:1004700048208DF8030069460648FFF754FF012025
:10048000ADF8000028208DF8030069460248FFF708
:100490004AFF08BD001801400008014010B50024C3
:1004A0002948007800283AD001212848FFF7C6FFE4
:1004B000012809D010212648FFF7C0FF20B10821EC
:1004C0002348FFF7BBFF10BB0A2000F09BFA012175
:1004D0001E48FFF7B3FF012809D010211C48FFF781
:1004E000ADFF20B108211A48FFF7A8FF78B9002016
:1004F0001549087010211648FFF7A0FF08B901241C
:100500000DE008211248FFF799FF08B9022406E020
:1005100001210E48FFF792FF012800D10324012199
:100520000A48FFF78BFF68B910210948FFF786FFDB
:10053000012807D108210648FFF780FF012801D1D3
:1005400001490870204610BD180000200008014035
:100550000018014008B50121082000F029F8012108
:10056000402000F025F82020ADF8000010208DF884
:10057000030003208DF8020069460948FFF7D3FE07
:100580002020ADF8000069460648FFF7CCFE202188
:100590000348FFF75CFF20210248FFF758FF08BD22
:1005A000000C01400018014000BFFEE77047704793
:1005B00029B1064A92690243044B9A6104E0034A56
:1005C00092698243014B9A6170470000001002401B
:1005D00030B500210022002400232D4D6D6805F068
:1005E0000C0121B1042905D0082923D105E0294DAA
:1005F000056022E0274D05601FE0254D6D6805F47C
:100600007012234D6D6805F48034022505EB92428B
:100610001CB9214D554305600BE01D4D6D6805F477
:1006200000351DB11C4D5543056002E0194D554381
:10063000056002E0174D056000BF00BF144D6D68F6
:1006400005F0F0010909154D6B5C0568DD4045605A
:100650000F4D6D6805F4E061090A104D6B5C45684B
:10066000DD4085600A4D6D6805F46051C90A0B4D87
:100670006B5C4568DD40C560054D6D6805F4404123
:10068000890B074D6B5CC568B5FBF3F5056130BDA3
:100690000010024000127A0000093D000400002012
:1006A00014000020704710B500F002F810BD0000E3
:1006B0000CB50020019000903348006840F4803071
:1006C0003149086000BF3048006800F400300090F5
:1006D0000198401C0190009818B90198B0F5A06FDE
:1006E000F1D12948006800F4003010B101200090D9
:1006F00001E0002000900098012843D123480068C1
:1007000040F01000214908600846006820F003000E
:1007100008600846006840F0020008601A48406817
:10072000194948600846406848600846406840F4F7
:10073000806048600846406820F47C1048600846A5
:10074000406840F4E81048600846006840F0807057
:10075000086000BF0C48006800F000700028F9D065
:100760000948406820F0030007494860084640688F
:1007700040F00200486000BF0348406800F00C00F1
:100780000828F9D10CBD00000010024000200240F2
:10079000704700204FF0E02108610846006920F012
:1007A000040008617047000010B51348006840F06D
:1007B00001001149086008464068104908400E4988
:1007C0004860084600680E4908400B490860084622
:1007D000006820F4802008600846406820F4FE008D
:1007E00048604FF41F008860FFF75DFF4FF0006026
:1007F0000449086010BD0000001002400000FFF82E
:10080000FFFFF6FE08ED00E010B586B004460121BA
:1008100044F20400FFF7CCFE4FF40070ADF8140072
:1008200018208DF8170003208DF8160005A914482C
:10083000FFF779FD4FF48060ADF8140004208DF8C7
:10084000170003208DF8160005A90D48FFF76BFD72
:1008500001940020ADF80800ADF80A00ADF80C00D6
:10086000ADF810000C20ADF80E0001A9054800F00D
:1008700017F80121034800F007F806B010BD00008A
:10088000000801400038014021B1828942F4005241
:10089000828104E082894DF6FF731A40828170479D
:1008A0002DE9F04786B005460E460024A24600BF5B
:1008B000A1460027B08900B100BF2F462C8A4CF614
:1008C000FF700440F08804432C82AC894EF6F3108C
:1008D0000440B08831890843718908430443AC81DE
:1008E000AC8A4FF6FF400440B0890443AC8201A8B3
:1008F000FFF76EFE1F48874202D1DDF810A001E02D
:10090000DDF80CA0A88900F4004040B10AEBCA0051
:1009100000EB0A1031684900B0FBF1F807E00AEB80
:10092000CA0000EB0A1031688900B0FBF1F86420BE
:10093000B8FBF0F004012009642101FB1089A889AB
:1009400000F4004040B1322000EBC900B0FBF1F0F0
:1009500000F00700044308E0322000EB0910642196
:10096000B0FBF1F000F00F0004432C8106B0BDE8AD
:10097000F08700000038014010B5002406A0FFF702
:100980004BFC642000F03EF80C48446801460868BF
:10099000FFF71CFCA04710BDB3CCD0F2D7BCB1B858
:1009A000CCF8D7AAB5BD426F6F746C6F6164657285
:1009B0002E2E2E2E2E2E0D0A000000000000010803
:1009C00000BFFEE700BF7047FF214FF0E0229161BA
:1009D00042F22831414351611146096941F0010158
:1009E000116100BF4FF0E021096901F48031002955
:1009F000F8D04FF0E021096921F001014FF0E02229
:100A00001161704730B503460025B3F5E96F03DC8B
:100A10001846FFF7D9FF15E004E0A3F5E96083B2BB
:100A2000681C85B2B3F5E96FF7DA002405E04FF4EE
:100A3000E960FFF7C9FF601C84B2AC42F7DB1846DF
:100A4000FFF7C2FF30BD000000BF054A128802F068
:100A50004002002AF9D0C2B2014B1B1D1A80704718
:100A60000038014000250024FFF793FE4FF4E130E9
:100A7000FFF7CAFEFFF76EFDFFF7EEFC20211348DB
:100A8000FFF7E5FC20211248FFF7E1FC11A0FFF77A
:100A9000C3FB15A0FFF7C0FB16E0FFF7FFFC054600
:100AA000032D01D1FFF768FF601CC4B2502C08D1A0
:100AB000002407480C30006880F0200004490C3105
:100AC00008600A20FFF79EFFE7E70000000C0140E6
:100AD00000180140BDF8C8EBD0C2B5C4D3C3BBA752
:100AE000B3CCD0F20D0A0000B0B4CFC24B45595F71
:100AF0005550BDF8C8EB426F6F746C6F61646572DE
:100B0000B3CCD0F20D0A0000280B00080000002032
:100B10001C0000006C010008440B00081C000020B1
:100B200064060000880100080000000000000000CA
:100B3000010203040102030406070809020406086F
:040B400001000000B0
:0400000508000131BD
:00000001FF
