:020000040800F2
:1000000088060020D5010008D50500085304000823
:10001000D105000821030008850A0008000000003F
:10002000000000000000000000000000E7010008E0
:100030002503000800000000EB0100083908000853
:10004000EF010008EF010008EF010008EF010008D0
:10005000EF010008EF010008EF010008EF010008C0
:10006000EF010008EF010008EF010008EF010008B0
:10007000EF010008EF010008EF010008EF010008A0
:10008000EF010008EF010008EF010008EF01000890
:10009000EF010008EF010008EF010008EF01000880
:1000A000EF010008EF010008EF010008EF01000870
:1000B000EF010008EF010008EF010008EF01000860
:1000C000EF010008EF010008EF010008EF01000850
:1000D000EF010008EF010008EF010008EF01000840
:1000E000EF010008EF010008EF010008EF01000830
:1000F000EF010008EF010008EF010008EF01000820
:10010000EF010008EF010008EF010008EF0100080F
:10011000EF010008EF010008EF010008EF010008FF
:10012000EF010008EF010008EF010008EF010008EF
:1001300000F002F800F03AF80AA090E8000C8244BF
:100140008344AAF10107DA4501D100F02FF8AFF29C
:10015000090EBAE80F0013F0010F18BFFB1A43F0A5
:1001600001031847300A0000500A0000103A24BF6B
:1001700078C878C1FAD8520724BF30C830C144BF0C
:1001800004680C607047000000230024002500264E
:10019000103A28BF78C1FBD8520728BF30C148BFEA
:1001A0000B6070471FB51FBD10B510BD00F072F891
:1001B0001146FFF7F7FF00F0B7FC00F0A4F803B416
:1001C000FFF7F2FF03BC00F05FFC000080F308883B
:1001D000704700000948804709480047FEE7FEE7EE
:1001E000FEE7FEE7FEE7FEE7FEE7FEE7FEE7FEE7E7
:1001F00004480549054A064B704700004D080008B1
:1002000031010008880000208806002088020020B4
:1002100088020020704700000FB4044910B503AAFB
:10022000029800F009F810BC5DF814FB1C000020D7
:100230007047704770477047074B70B50D467B4459
:1002400000F011F80446284600F020F810B14FF0F5
:10025000FF3070BD204670BDCB08000001694A1C0C
:1002600002610878704700B58FB0CDE901310021F7
:10027000059105497944CDE903101146684600F01F
:100280002EF80FB000BD0000E5FFFFFF007B00F07F
:1002900080007047754600F03FF8AE46050069469D
:1002A000534620F00700854618B020B5FFF7A0FFA1
:1002B000BDE820404FF000064FF000074FF0000867
:1002C0004FF0000B21F00701AC46ACE8C009ACE8E8
:1002D000C009ACE8C009ACE8C0098D4670472DE9FB
:1002E000F04106460024D6E90170F56880463046A4
:1002F00003E04146B847641C3046A8470028F8D1BF
:100300002046BDE8F08110B50446AFF300802046DA
:10031000BDE81040FFF753BF00487047240000209D
:1003200000BFFEE770472DE9F04102460025002698
:10033000002000230024002791F803C00CF00F05D3
:1003400091F803C00CF0100CBCF1000F03D091F831
:1003500002C04CEA050591F800C0BCF1000F31D095
:10036000146800202BE04FF0010C0CFA00F3B1F8F8
:1003700000C00CEA03069E4220D183004FF00F0C10
:100380000CFA03F7BC4305FA03FC4CEA040491F8A9
:1003900003C0BCF1280F06D14FF0010C0CFA00FC91
:1003A000C2F814C00AE091F803C0BCF1480F05D1AF
:1003B0004FF0010C0CFA00FCC2F810C0401C0828D9
:1003C000D1D31460B1F800C0BCF1FF0F34DD546824
:1003D00000202EE000F1080C4FF0010808FA0CF3A1
:1003E000B1F800C00CEA03069E4221D183004FF011
:1003F0000F0C0CFA03F7BC4305FA03FC4CEA0404A7
:1004000091F803C0BCF1280F05D100F1080C08FADF
:100410000CF8C2F8148091F803C0BCF1480F07D162
:1004200000F1080C4FF0010808FA0CF8C2F810802F
:10043000401C0828CED35460BDE8F081024600205D
:1004400093680B400BB1012000E000207047016170
:10045000704700BFFEE7000008B50121042000F04E
:10046000FDF80121402000F0F9F81820ADF8000057
:1004700048208DF8030069460648FFF754FF012025
:10048000ADF8000028208DF8030069460248FFF708
:100490004AFF08BD001801400008014010B50024C3
:1004A00028480078002837D001212748FFF7C6FFE9
:1004B00048B908212548FFF7C1FF20B11021234882
:1004C000FFF7BCFF08BB142000F0FFFA01211E4813
:1004D000FFF7B4FF48B908211C48FFF7AFFF20B170
:1004E00010211A48FFF7AAFF78B9002015490870B3
:1004F00010211648FFF7A2FF08B901240CE00821DB
:100500001248FFF79BFF08B9022405E001210E48BD
:10051000FFF794FF00B1032401210B48FFF78EFF82
:1005200068B908210948FFF789FF40B1074808303A
:10053000006800F0100010B1012002490870204648
:1005400010BD0000200000200008014000180140FC
:1005500008B50121082000F081F80121402000F0B9
:100560007DF82020ADF8000010208DF80300032056
:100570008DF8020069460948FFF7D5FE2020ADF846
:10058000000069460648FFF7CEFE20210348FFF72A
:100590005EFF20210248FFF75AFF08BD000C014012
:1005A0000018014008480088401C07490880084698
:1005B0000088502807D1002008800448006880F097
:1005C0002000024908607047180000200C18014004
:1005D00000BFFEE77047000070B5002100230F2226
:1005E000C47804B3154C246804F4E064C4F5E064F2
:1005F000210AC1F10403CA40447804FA03F1847863
:100600001440214309010E4C0678A155047804F0EA
:100610001F050124AC4005786D11AD0005F1E02502
:10062000C5F8004109E0047804F01F050124AC403E
:10063000044D0678761145F8264070BD0CED00E0BB
:1006400000E400E080E100E002490143024A116059
:10065000704700000000FA050CED00E029B1064AE1
:1006600092690243044B9A6104E0034A926982430F
:10067000014B9A61704700000010024030B5002124
:100680000022002400232D4D6D6805F00C0121B1DE
:10069000042905D0082923D105E0294D056022E071
:1006A000274D05601FE0254D6D6805F47012234D40
:1006B0006D6805F48034022505EB92421CB9214D8A
:1006C000554305600BE01D4D6D6805F400351DB107
:1006D0001C4D5543056002E0194D5543056002E08D
:1006E000174D056000BF00BF144D6D6805F0F001A7
:1006F0000909154D6B5C0568DD4045600F4D6D685F
:1007000005F4E061090A104D6B5C4568DD408560C9
:100710000A4D6D6805F46051C90A0B4D6B5C456864
:10072000DD40C560054D6D6805F44041890B074DFE
:100730006B5CC568B5FBF3F5056130BD0010024088
:1007400000127A0000093D00000000201000002087
:1007500010B500F001F810BD0CB50020019000901C
:100760003348006840F480303149086000BF3048A9
:10077000006800F4003000900198401C019000983F
:1007800018B90198B0F5A06FF1D12948006800F4BC
:10079000003010B10120009001E00020009000988E
:1007A000012843D12348006840F010002149086027
:1007B0000846006820F0030008600846006840F022
:1007C000020008601A4840681949486008464068B5
:1007D00048600846406840F48060486008464068C9
:1007E00020F47C1048600846406840F4E8104860F7
:1007F0000846006840F08070086000BF0C48006840
:1008000000F000700028F9D00948406820F003008B
:10081000074948600846406840F00200486000BF51
:100820000348406800F00C000828F9D10CBD000016
:10083000001002400020024070474FF0E0200069A5
:1008400020F004004FF0E0210861704710B5134814
:10085000006840F0010011490860084640681049EE
:1008600008400E494860084600680E4908400B4998
:1008700008600846006820F4802008600846406848
:1008800020F4FE0048604FF41F008860FFF760FF0F
:100890004FF000600449086010BD000000100240E5
:1008A0000000FFF8FFFFF6FE08ED00E010B586B08F
:1008B0000446012144F20400FFF7D0FE4FF400701B
:1008C000ADF8140018208DF8170003208DF81600DD
:1008D00005A91B48FFF727FD4FF48060ADF8140011
:1008E00004208DF8170003208DF8160005A9144880
:1008F000FFF719FD01940020ADF80800ADF80A00DB
:10090000ADF80C00ADF810000C20ADF80E0001A9F8
:100910000C4800F025F825208DF8000003208DF804
:1009200001008DF8020001208DF803006846FFF7F2
:1009300053FE0121034800F007F806B010BD000087
:10094000000801400038014021B1828942F4005280
:10095000828104E082894DF6FF731A4082817047DC
:100960002DE9F04786B005460E460024A24600BF9A
:10097000A1460027B08900B100BF2F462C8A4CF653
:10098000FF700440F08804432C82AC894EF6F310CB
:100990000440B08831890843718908430443AC811D
:1009A000AC8A4FF6FF400440B0890443AC8201A8F2
:1009B000FFF764FE1F48874202D1DDF810A001E076
:1009C000DDF80CA0A88900F4004040B10AEBCA0091
:1009D00000EB0A1031684900B0FBF1F807E00AEBC0
:1009E000CA0000EB0A1031688900B0FBF1F86420FE
:1009F000B8FBF0F004012009642101FB1089A889EB
:100A000000F4004040B1322000EBC900B0FBF1F02F
:100A100000F00700044308E0322000EB09106421D5
:100A2000B0FBF1F000F00F0004432C8106B0BDE8EC
:100A3000F08700000038014010B509A0FFF7ECFB7B
:100A40000A2000F024F80D4840680D4908600B4961
:100A50000868FFF7BBFB0A480068804710BD00002C
:100A6000B3CCD0F2D7BCB1B8CCF8D7AAB5BD426FE1
:100A70006F746C6F616465720D0A000000400108BC
:100A80001400002000BFFEE7014600BF7047FF21B1
:100A90004FF0E022916142F2283141435161114609
:100AA000096941F00101116100BF4FF0E0210969BE
:100AB00001F480310029F8D04FF0E021096921F0DC
:100AC00001014FF0E0221161704730B50346002567
:100AD000B3F5E96F03DC1846FFF7D9FF15E004E032
:100AE000A3F5E96083B2681CC5B2B3F5E96FF7DA24
:100AF000002405E04FF4E960FFF7C9FF601CC4B2B1
:100B0000AC42F7DB1846FFF7C2FF30BD00BF054A15
:100B1000128802F04002002AF9D0C2B2014B1B1D1C
:100B20001A8070470038014000244FF4A060FFF79E
:100B30008BFD4FF4E130FFF7B9FEFFF77EFEFFF7C4
:100B40008BFCFFF705FD20210B48FFF780FC2021DF
:100B50000A48FFF77CFC0AA0FFF75EFB0BE0FFF7FB
:100B60009DFC0446032C01D1FFF766FFFFF71AFD39
:100B70000A20FFF78CFFF2E7000C0140001801404B
:100B8000BDF8C8EBD0C2B5C4D3C3BBA7B3CCD0F2B9
:100B90000D0A0000B40B0008000000202400000033
:100BA0006C010008D80B0008240000206406000037
:100BB0008801000800000000010203040102030490
:100BC00006070809020406080000000000000000F3
:080BD00000000000010000001C
:04000005080001D519
:00000001FF
