:020000040801F1
:1000000078060020CD010108990401083D0401088B
:1000100095040108190301086508010800000000A3
:100020000000000000000000000000009105010831
:100030001D030108000000009B0401087D06010863
:10004000E7010108E7010108E7010108E7010108EC
:10005000E7010108E7010108E7010108E7010108DC
:10006000E7010108E7010108E7010108E7010108CC
:10007000E7010108E7010108E7010108E7010108BC
:10008000E7010108E7010108E7010108E7010108AC
:10009000E7010108E7010108E7010108E70101089C
:1000A000E7010108E7010108E7010108E70101088C
:1000B000E7010108E7010108E7010108E70101087C
:1000C000E7010108E7010108E7010108E70101086C
:1000D000E7010108E7010108E7010108E70101085C
:1000E000E7010108E7010108E7010108E70101084C
:1000F000E7010108E7010108E7010108E70101083C
:10010000E7010108E7010108E7010108E70101082B
:10011000E7010108E7010108E7010108E70101081B
:10012000E7010108E7010108E7010108E70101080B
:1001300000F002F800F03AF80AA090E8000C8244BF
:100140008344AAF10107DA4501D100F02FF8AFF29C
:10015000090EBAE80F0013F0010F18BFFB1A43F0A5
:10016000010318473808000058080000103A24BF5F
:1001700078C878C1FAD8520724BF30C830C144BF0C
:1001800004680C607047000000230024002500264E
:10019000103A28BF78C1FBD8520728BF30C148BFEA
:1001A0000B6070471FB51FBD10B510BD00F06EF895
:1001B0001146FFF7F7FF00F0A7FB00F0A0F803B42B
:1001C000FFF7F2FF03BC00F04FFB00000948804737
:1001D00009480047FEE7FEE7FEE7FEE7FEE7FEE729
:1001E000FEE7FEE7FEE7FEE704480549054A064B41
:1001F00070470000950601083101010878000020D1
:100200007806002078020020780200207047000065
:100210000FB4044910B503AA029800F009F810BC05
:100220005DF814FB0000002070477047704770476E
:10023000074B70B50D467B4400F011F80446284684
:1002400000F020F810B14FF0FF3070BD204670BDB7
:10025000B306000001694A1C02610878704700B5C6
:100260008FB0CDE901310021059105497944CDE9EF
:1002700003101146684600F02EF80FB000BD0000D4
:10028000E5FFFFFF007B00F080007047754600F03F
:100290003FF8AE4605006946534620F00700854604
:1002A00018B020B5FFF7A0FFBDE820404FF00006D2
:1002B0004FF000074FF000084FF0000B21F007014E
:1002C000AC46ACE8C009ACE8C009ACE8C009ACE891
:1002D000C0098D4670472DE9F04106460024D6E955
:1002E0000170F5688046304603E04146B847641C1B
:1002F0003046A8470028F8D12046BDE8F08110B567
:100300000446AFF300802046BDE81040FFF757BF1A
:10031000004870471800002000BFFEE770472DE935
:10032000F04102460025002600200023002400277B
:1003300091F803C00CF00F0591F803C00CF0100CFD
:10034000BCF1000F03D091F802C04CEA050591F80A
:1003500000C0BCF1000F31D0146800202BE04FF03A
:10036000010C0CFA00F3B1F800C00CEA03069E423F
:1003700020D183004FF00F0C0CFA03F7BC4305FAB1
:1003800003FC4CEA040491F803C0BCF1280F06D129
:100390004FF0010C0CFA00FCC2F814C00AE091F80E
:1003A00003C0BCF1480F05D14FF0010C0CFA00FC62
:1003B000C2F810C0401C0828D1D31460B1F800C0A6
:1003C000BCF1FF0F34DD546800202EE000F1080C72
:1003D0004FF0010808FA0CF3B1F800C00CEA03066C
:1003E0009E4221D183004FF00F0C0CFA03F7BC435F
:1003F00005FA03FC4CEA040491F803C0BCF1280F91
:1004000005D100F1080C08FA0CF8C2F8148091F834
:1004100003C0BCF1480F07D100F1080C4FF00108F0
:1004200008FA0CF8C2F81080401C0828CED354609B
:10043000BDE8F081416170470161704700BFFEE790
:1004400008B50121082000F029F80121402000F022
:1004500025F82020ADF8000010208DF803000320BF
:100460008DF8020069460948FFF759FF2020ADF8D2
:10047000000069460648FFF752FF20210348FFF7B6
:10048000DBFF20210248FFF7D7FF08BD000C014029
:100490000018014000BFFEE77047704729B1064AC7
:1004A00092690243044B9A6104E0034A92698243D1
:1004B000014B9A61704700000010024030B50021E6
:1004C0000022002400232D4D6D6805F00C0121B1A0
:1004D000042905D0082923D105E0294D056022E033
:1004E000274D05601FE0254D6D6805F47012234D02
:1004F0006D6805F48034022505EB92421CB9214D4C
:10050000554305600BE01D4D6D6805F400351DB1C8
:100510001C4D5543056002E0194D5543056002E04E
:10052000174D056000BF00BF144D6D6805F0F00168
:100530000909154D6B5C0568DD4045600F4D6D6820
:1005400005F4E061090A104D6B5C4568DD4085608B
:100550000A4D6D6805F46051C90A0B4D6B5C456826
:10056000DD40C560054D6D6805F44041890B074DC0
:100570006B5CC568B5FBF3F5056130BD001002404A
:1005800000127A0000093D00040000201400002041
:10059000704710B500F002F810BD00000CB5002047
:1005A000019000903348006840F480303149086081
:1005B00000BF3048006800F4003000900198401CF3
:1005C0000190009818B90198B0F5A06FF1D12948B1
:1005D000006800F4003010B10120009001E000201C
:1005E00000900098012843D12348006840F0100093
:1005F000214908600846006820F0030008600846AA
:10060000006840F0020008601A48406819494860D4
:100610000846406848600846406840F4806048608A
:100620000846406820F47C1048600846406840F462
:10063000E81048600846006840F08070086000BF1D
:100640000C48006800F000700028F9D009484068A4
:1006500020F00300074948600846406840F0020067
:10066000486000BF0348406800F00C000828F9D13A
:100670000CBD000000100240002002407047002026
:100680004FF0E02108610846006920F0040008618D
:100690007047000010B51348006840F00100114990
:1006A000086008464068104908400E4948600846FE
:1006B00000680E4908400B4908600846006820F4AD
:1006C000802008600846406820F4FE0048604FF42F
:1006D0001F008860FFF75DFF4FF00060044908606D
:1006E00010BD0000001002400000FFF8FFFFF6FE02
:1006F00008ED00E010B586B00446012144F2040084
:10070000FFF7CCFE4FF40070ADF8140018208DF800
:10071000170003208DF8160005A91448FFF7FFFD08
:100720004FF48060ADF8140004208DF8170003200A
:100730008DF8160005A90D48FFF7F1FD0194002082
:10074000ADF80800ADF80A00ADF80C00ADF81000E7
:100750000C20ADF80E0001A9054800F017F80121A2
:10076000034800F007F806B010BD00000008014083
:100770000038014021B1828942F40052828104E0B4
:1007800082894DF6FF731A40828170472DE9F04748
:1007900086B005460E460024A24600BFA1460027AB
:1007A000B08900B100BF2F462C8A4CF6FF70044080
:1007B000F08804432C82AC894EF6F3100440B088D4
:1007C00031890843718908430443AC81AC8A4FF6F0
:1007D000FF400440B0890443AC8201A8FFF76EFEDD
:1007E0001F48874202D1DDF810A001E0DDF80CA01F
:1007F000A88900F4004040B10AEBCA0000EB0A10DF
:1008000031684900B0FBF1F807E00AEBCA0000EBE1
:100810000A1031688900B0FBF1F86420B8FBF0F0F1
:1008200004012009642101FB1089A88900F400401B
:1008300040B1322000EBC900B0FBF1F000F007003E
:10084000044308E0322000EB09106421B0FBF1F012
:1008500000F00F0004432C8106B0BDE8F0870000D3
:100860000038014000BFFEE700BF7047FF214FF096
:10087000E022916142F228314143516111460969F8
:1008800041F00101116100BF4FF0E021096901F45D
:1008900080310029F8D04FF0E021096921F00101F1
:1008A0004FF0E0221161704730B503460025B3F5E3
:1008B000E96F03DC1846FFF7D9FF15E004E0A3F564
:1008C000E96083B2681C85B2B3F5E96FF7DA0024FA
:1008D00005E04FF4E960FFF7C9FF601C84B2AC4249
:1008E000F7DB1846FFF7C2FF30BD000000BF054A26
:1008F000128802F04002002AF9D0C2B2014B1B1D3F
:100900001A807047003801401A481B490860FFF7F9
:10091000B6FE4FF4E130FFF7EDFEFFF791FD202129
:100920001648FFF789FD20211548FFF785FD642053
:10093000FFF7BAFF13A0FFF76BFC13A0FFF768FCEB
:1009400017E020210D48FFF775FD20210C48FFF727
:1009500071FD4FF44870FFF7A7FF20210748FFF70C
:100960006BFD20210648FFF767FD4FF44870FFF745
:100970009BFFE6E70000010808ED00E0000C0140E5
:10098000001801400D0A0000466C617368B3CCD0BA
:10099000F2B8FCD0C2B3C9B9A60D0A00BC0901085F
:1009A00000000020180000006C010108D4090108B3
:1009B0001800002060060000880101080000000007
:1009C00000000000010203040102030406070809F5
:0409D000020406080F
:0400000508010131BC
:00000001FF
