:020000040801F1
:10000000800E0020D501010895080108D7060108D7
:10001000910801088D040108050F01080000000087
:10002000000000000000000000000000470B010875
:1000300091040108000000001D090108310C0108AD
:10004000EF010108EF010108EF010108EF010108CC
:10005000EF010108EF010108EF010108EF010108BC
:10006000EF010108EF010108EF010108EF010108AC
:10007000EF010108EF010108EF010108EF0101089C
:10008000EF010108EF010108EF010108EF0101088C
:10009000EF010108EF010108EF010108EF0101087C
:1000A000EF010108EF010108EF010108EF0101086C
:1000B000EF010108EF010108EF010108EF0101085C
:1000C000EF010108EF010108EF010108EF0101084C
:1000D000EF010108A90C0108EF010108EF01010877
:1000E000EF010108EF010108EF010108EF0101082C
:1000F000EF010108EF010108EF010108EF0101081C
:10010000EF010108EF010108EF010108EF0101080B
:10011000EF010108EF010108EF010108EF010108FB
:10012000EF010108EF010108EF010108EF010108EB
:1001300000F002F800F03FF80AA090E8000C8244BA
:100140008344AAF10107DA4501D100F034F8AFF297
:10015000090EBAE80F0013F0010F18BFFB1A43F0A5
:10016000010318473010000050100000103A24BF5F
:1001700078C878C1FAD8520724BF30C830C144BF0C
:1001800004680C607047000000230024002500264E
:10019000103A28BF78C1FBD8520728BF30C148BFEA
:1001A0000B607047642900F07780002070471FB50E
:1001B0001FBD10B510BD00F037F91146FFF7F7FF6E
:1001C00000F0F2FE00F055F903B4FFF7F2FF03BCB4
:1001D00000F09AFE0948804709480047FEE7FEE71D
:1001E000FEE7FEE7FEE7FEE7FEE7FEE7FEE7FEE7E7
:1001F00004480549054A064B70470000490C0108B0
:100200003101010880080020800E0020800A0020B3
:10021000800A0020704700000FB4044910B503AAFB
:10022000029800F0D3F810BC5DF814FB0400002025
:100230002DE9F0410E460446002020622046E16888
:10024000884730B3252805D0D4E901219047206A9A
:10025000401CF2E7E168204600278847050018D0D7
:10026000A5F14100192802D820354FF40067324625
:10027000294620462760FFF795FF40B1012804D0AA
:10028000F61D26F007060836D8E7361DD6E72846BD
:10029000DAE7206ABDE8F0812DE9F0410646002446
:1002A00010687529314616A510D0AFF300800028DC
:1002B00002DA404213A507E031688A0701D512A58A
:1002C00002E0490704D511A5012401E0AFF3008045
:1002D00000210A2206F1240709E0B0FBF2FCB0FB82
:1002E000F2F302FB1C00303078541846491C0028F9
:1002F000F3D123462A463046BDE8F04100F00CB861
:10030000000000002D0000002B0000002000000075
:1003100070477047704770472DE9F0470D46994682
:100320009246044600F124080168880604D5E06975
:1003300021F01001216000E00120A84201DD471BEF
:1003400000E00027A1697A1902EB0900081AA061F0
:100350002078C00602D42046AFF30080002608E0D3
:10036000D4E901211AF806009047206A401C761C47
:1003700020624E45F4DB2078C0060AD52046AFF354
:10038000008006E0D4E9012130209047206A401C1B
:100390002062381EA7F10107F4DC07E0D4E901214F
:1003A00018F805009047206A401C2062281EA5F11D
:1003B0000105F3DC2046AFF300802078000602D56B
:1003C0000220BDE8F0870120FBE70000074B70B575
:1003D0000D467B4400F011F80446284600F020F852
:1003E00010B14FF0FF3070BD204670BDB70B00005C
:1003F00001694A1C02610878704700B58FB0CDE9E9
:1004000001310021059105497944CDE903101146D8
:100410006846FFF70DFF0FB000BD0000E5FFFFFFCE
:10042000007B00F080007047754600F02BF8AE4668
:1004300005006946534620F00700854618B020B5F0
:10044000FFF7D6FEBDE820404FF000064FF0000752
:100450004FF000084FF0000B21F00701AC46ACE86C
:10046000C009ACE8C009ACE8C009ACE8C0098D46D9
:10047000704710B50446AFF300802046BDE8104039
:10048000FFF7A2BE004870472008002000BFFEE72B
:100490007047000030B5044604254FF4302000F0CA
:1004A0006FF80546042D17D10C48006940F0020092
:1004B0000A49086108464461006940F0400008614B
:1004C0004FF4302000F05CF805460448006941F61E
:1004D000FD71084001490861284630BD00200240F6
:1004E00004200B49C96801F0010109B101200EE0A7
:1004F0000749C96801F0040109B1022007E0044975
:10050000C96801F0100109B1032000E00420704720
:10051000002002400348006940F080000149086162
:10052000704700000020024070B504460D460426C6
:10053000F00200F025F80646042E11D109480069A2
:1005400040F00100074908612580F00200F018F82A
:1005500006460448006941F6FE71084001490861F9
:10056000304670BD002002400248034948600348FD
:10057000486070472301674500200240AB89EFCDFA
:1005800000B502460423FFF7ABFF034603E0FFF785
:10059000A7FF0346521E012B01D1002AF7D102B951
:1005A0000523184600BD2DE9F0410246002500262E
:1005B000002000230024002791F803C00CF00F0551
:1005C00091F803C00CF0100CBCF1000F03D091F8AF
:1005D00002C04CEA050591F800C0BCF1000F31D013
:1005E000146800202BE04FF0010C0CFA00F3B1F876
:1005F00000C00CEA03069E4220D183004FF00F0C8E
:100600000CFA03F7BC4305FA03FC4CEA040491F826
:1006100003C0BCF1280F06D14FF0010C0CFA00FC0E
:10062000C2F814C00AE091F803C0BCF1480F05D12C
:100630004FF0010C0CFA00FCC2F810C0401C082856
:10064000D1D31460B1F800C0BCF1FF0F34DD5468A1
:1006500000202EE000F1080C4FF0010808FA0CF31E
:10066000B1F800C00CEA03069E4221D183004FF08E
:100670000F0C0CFA03F7BC4305FA03FC4CEA040424
:1006800091F803C0BCF1280F05D100F1080C08FA5D
:100690000CF8C2F8148091F803C0BCF1480F07D1E0
:1006A00000F1080C4FF0010808FA0CF8C2F81080AD
:1006B000401C0828CED35460BDE8F08102460020DB
:1006C00093680B400BB1012000E0002070474161AE
:1006D00070470161704700BFFEE700002DE9F05F41
:1006E00006460F4690460024B3463D46A1461BE011
:1006F00068784FEA002A287840EA0A0AAD1C2046AA
:10070000611C8CB20D4921F810A0B4F5806F07D19F
:1007100000244FF48062584600F090F90BF5006B0E
:1007200009F102001FFA80F9C145E1D324B1224644
:100730000249584600F082F9BDE8F09F00EC002025
:1007400008B50121042000F0EBF80121402000F061
:10075000E7F81820ADF8000048208DF8030069463E
:100760000648FFF720FF0120ADF8000028208DF893
:10077000030069460248FFF716FF08BD0018014054
:100780000008014010B500242948007800283AD01C
:1007900001212848FFF792FF012809D0102126489F
:1007A000FFF78CFF20B108212348FFF787FF10BB1C
:1007B0000A2000F0C9FB01211E48FFF77FFF012836
:1007C00009D010211C48FFF779FF20B108211A48F1
:1007D000FFF774FF78B900201549087010211648FA
:1007E000FFF76CFF08B901240DE008211248FFF75C
:1007F00065FF08B9022406E001210E48FFF75EFFFD
:10080000012800D1032401210A48FFF757FF68B9E6
:1008100010210948FFF752FF012807D10821064897
:10082000FFF74CFF012801D101490870204610BD97
:100830001C000020000801400018014008B50121FB
:10084000082000F06DF80121402000F069F8202018
:10085000ADF8000010208DF8030003208DF8020091
:1008600069460948FFF79FFE2020ADF80000694661
:100870000648FFF798FE20210348FFF72AFF2021B2
:100880000248FFF726FF08BD000C01400018014098
:1008900000BFFEE77047000070B5002100230F2263
:1008A000C47804B3154C246804F4E064C4F5E0642F
:1008B000210AC1F10403CA40447804FA03F18478A0
:1008C0001440214309010E4C0678A155047804F028
:1008D0001F050124AC4005786D11AD0005F1E02540
:1008E000C5F8004109E0047804F01F050124AC407C
:1008F000044D0678761145F8264070BD0CED00E0F9
:1009000000E400E080E100E002490143024A116096
:10091000704700000000FA050CED00E07047000091
:1009200029B1064A92690243044B9A6104E0034AE2
:1009300092698243014B9A617047000000100240A7
:1009400030B500210022002400232D4D6D6805F0F4
:100950000C0121B1042905D0082923D105E0294D36
:10096000056022E0274D05601FE0254D6D6805F408
:100970007012234D6D6805F48034022505EB924218
:100980001CB9214D554305600BE01D4D6D6805F404
:1009900000351DB11C4D5543056002E0194D55430E
:1009A000056002E0174D056000BF00BF144D6D6883
:1009B00005F0F0010909154D6B5C0568DD404560E7
:1009C0000F4D6D6805F4E061090A104D6B5C4568D8
:1009D000DD4085600A4D6D6805F46051C90A0B4D14
:1009E0006B5C4568DD40C560054D6D6805F44041B0
:1009F000890B074D6B5CC568B5FBF3F5056130BD30
:100A00000010024000127A0000093D00080000209A
:100A10001800002030B503460C461546002207E0BA
:100A2000184600F008F824F812009B1C501C82B2F3
:100A3000AA42F5DB30BD0146088870472DE9F05F1A
:100A400080468A461746B8F1006F02D3B8F1205F9E
:100A500001D3BDE8F09FFFF787FDA8F1006B4FEAD7
:100A6000DB25CBF34909C9F58064A74200DC3C468D
:100A70004EE04FF0006101EBC5204A142749FFF713
:100A8000C9FF00260BE009EB0600244931F81000ED
:100A90004FF6FF71884200D003E0701C86B2A64278
:100AA000F1DB00BFA6421BDA4FF0006101EBC5206D
:100AB000FFF7F0FC002608E03AF8160006EB090103
:100AC000164A22F81100701C86B2A642F4DB4FF0E1
:100AD000006101EBC5204A14104900F021F804E040
:100AE00022465146404600F01BF8A74200D110E0D4
:100AF0006D1C4FF000090AEB440A08EB4408381B50
:100B000087B2B7F5806F02DD4FF4806400E03C46A9
:100B1000AFE700BFFFF7FEFC00BF9AE72000002010
:100B20002DE9F04105460E461746002407E036F849
:100B300014102846FFF7F8FCAD1C601C84B2BC42C0
:100B4000F5DBBDE8F081704710B500F001F810BD8D
:100B50000CB50020019000903348006840F48030CC
:100B60003149086000BF3048006800F40030009050
:100B70000198401C0190009818B90198B0F5A06F39
:100B8000F1D12948006800F4003010B10120009034
:100B900001E0002000900098012843D1234800681C
:100BA00040F01000214908600846006820F003006A
:100BB00008600846006840F0020008601A48406873
:100BC000194948600846406848600846406840F453
:100BD000806048600846406820F47C104860084601
:100BE000406840F4E81048600846006840F08070B3
:100BF000086000BF0C48006800F000700028F9D0C1
:100C00000948406820F003000749486008464068EA
:100C100040F00200486000BF0348406800F00C004C
:100C20000828F9D10CBD000000100240002002404D
:100C3000704700204FF0E02108610846006920F06D
:100C4000040008617047000010B51348006840F0C8
:100C500001001149086008464068104908400E49E3
:100C60004860084600680E4908400B49086008467D
:100C7000006820F4802008600846406820F4FE00E8
:100C800048604FF41F008860FFF75EFF4FF0006080
:100C90000449086010BD0000001002400000FFF889
:100CA000FFFFF6FE08ED00E000201749098801F07B
:100CB0002001B9B11449091D0988C8B2134909882E
:100CC000B1F55C4F08DA1249104A128888540F496E
:100CD0000988491C0D4A11800B49098821F020011F
:100CE000094A11800849098801F0100151B1012118
:100CF000084A11800449098821F01001024A118034
:100D0000111D0988704700000038014002000020D2
:100D1000001000200000002010B586B0044601211C
:100D200044F20400FFF7FCFD4FF40070ADF814002E
:100D300018208DF8170003208DF8160005A920480B
:100D4000FFF731FC4FF48060ADF8140004208DF8FB
:100D5000170003208DF8160005A91948FFF723FC9A
:100D600001940020ADF80800ADF80A00ADF80C00C1
:100D7000ADF810000C20ADF80E0001A9114800F0EC
:100D800055F8012240F225510E4800F029F80122C1
:100D900040F224410B4800F023F825208DF8000094
:100DA00001208DF801008DF802008DF803006846DF
:100DB000FFF772FD0121034800F006F806B010BDF0
:100DC000000801400038014021B1828942F40052FC
:100DD000828104E082894DF6FF731A408281704758
:100DE000F0B50346002400260025002040F66A17CF
:100DF000B94200D100BF1846C1F3421401F01F06EA
:100E0000012707FA06F5012C01D10C3004E0022C71
:100E100001D1103000E014301AB107682F43076089
:100E200002E00768AF430760F0BD00002DE9F0471E
:100E300086B005460E460024A24600BFA146002704
:100E4000B08900B100BF2F462C8A4CF6FF700440D9
:100E5000F08804432C82AC894EF6F3100440B0882D
:100E600031890843718908430443AC81AC8A4FF649
:100E7000FF400440B0890443AC8201A8FFF760FD45
:100E80001F48874202D1DDF810A001E0DDF80CA078
:100E9000A88900F4004040B10AEBCA0000EB0A1038
:100EA00031684900B0FBF1F807E00AEBCA0000EB3B
:100EB0000A1031688900B0FBF1F86420B8FBF0F04B
:100EC00004012009642101FB1089A88900F4004075
:100ED00040B1322000EBC900B0FBF1F000F0070098
:100EE000044308E0322000EB09106421B0FBF1F06C
:100EF00000F00F0004432C8106B0BDE8F08700002D
:100F00000038014000BFFEE700BF7047FF214FF0EF
:100F1000E022916142F22831414351611146096951
:100F200041F00101116100BF4FF0E021096901F4B6
:100F300080310029F8D04FF0E021096921F001014A
:100F40004FF0E0221161704730B503460025B3F53C
:100F5000E96F03DC1846FFF7D9FF15E004E0A3F5BD
:100F6000E96083B2681C85B2B3F5E96FF7DA002453
:100F700005E04FF4E960FFF7C9FF601C84B2AC42A2
:100F8000F7DB1846FFF7C2FF30BD000000BF054A7F
:100F9000128802F04002002AF9D0C2B2014B1B1D98
:100FA0001A80704700380140002400253A483B4928
:100FB00008604FF4A060FFF7A7FCFFF73AFE4FF47C
:100FC000E130FFF7A9FEFFF739FCFFF7B9FB20215D
:100FD0003348FFF77CFB20213248FFF778FB32A033
:100FE000FFF71AF956E036480088002813D0354834
:100FF00005880020334908803149088032A0FFF776
:101000000BF9294635A0FFF707F939A0FFF704F9D6
:101010003FA0FFF701F90A20FFF796FFFFF7B2FBA9
:101020000446032C17D19DB14248406800F07F4030
:10103000B0F1006F0FD140A0FFF7EEF82A463D490E
:101040004FF00060FFF74AFB40A0FFF7E5F802E031
:1010500042A0FFF7E1F8012C01D0022C1AD145A0E3
:10106000FFF7DAF86420FFF751FF012080F31388BF
:1010700000BF00BF0948001D006800F4E06044495B
:101080000843001D0549091D0860BFF34F8F00BFCD
:1010900000BFFEE7A7E700000000010808ED00E040
:1010A000000C014000180140BDF8C8EB426F6F749E
:1010B0006C6F61646572B3CCD0F20D0A0000000061
:1010C0000000002002000020D3C3BBA7B3CCD0F2A5
:1010D000BDD3CAD5CDEAB3C9210D0A00B4FAC2EB1B
:1010E000B3A4B6C83A256442797465730D0A00004A
:1010F000B0B4CFC24B45595F5550D6B4D0D0464C52
:10110000415348B8FCD0C2B9CCBCFE0D0A00000067
:10111000B0B4CFC24B455931BBF24B455931D6B46F
:10112000D0D0464C415348C0EFB5C4D0C2B3CCD0A8
:10113000F20D0A0000100020BFAACABCB8FCD0C241
:10114000B9CCBCFE2E2E2E0D0A000000B9CCBCFE80
:10115000B8FCD0C2CDEAB3C9210D0A00C3BBD3D0BD
:10116000BFC9D2D4B8FCD0C2B5C4B9CCBCFE210D25
:101170000A000000D7BCB1B8CDCBB3F6426F6F7494
:101180006C6F616465722E2E2E2E2E2E0D0A0000BD
:101190000000FA05B4110108000000202000000042
:1011A0006C010108D411010820000020E0F30000C8
:1011B000880101080000000000000000000000009D
:1011C00001020304010203040607080902040608D9
:0411D000010000001A
:0400000508010131BC
:00000001FF
