:020000040801F1
:1000000068060020CD010108990401083D0401089B
:1000100095040108190301082D06010800000000DD
:10002000000000000000000000000000DF010108E7
:100030001D03010800000000E3010108B9050108E3
:10004000E7010108E7010108E7010108E7010108EC
:10005000E7010108E7010108E7010108E7010108DC
:10006000E7010108E7010108E7010108E7010108CC
:10007000E7010108E7010108E7010108E7010108BC
:10008000E7010108E7010108E7010108E7010108AC
:10009000E7010108E7010108E7010108E70101089C
:1000A000E7010108E7010108E7010108E70101088C
:1000B000E7010108E7010108E7010108E70101087C
:1000C000E7010108E7010108E7010108E70101086C
:1000D000E7010108E7010108E7010108E70101085C
:1000E000E7010108E7010108E7010108E70101084C
:1000F000E7010108E7010108E7010108E70101083C
:10010000E7010108E7010108E7010108E70101082B
:10011000E7010108E7010108E7010108E70101081B
:10012000E7010108E7010108E7010108E70101080B
:1001300000F002F800F03AF80AA090E8000C8244BF
:100140008344AAF10107DA4501D100F02FF8AFF29C
:10015000090EBAE80F0013F0010F18BFFB1A43F0A5
:1001600001031847F005000010060000103A24BFF4
:1001700078C878C1FAD8520724BF30C830C144BF0C
:1001800004680C607047000000230024002500264E
:10019000103A28BF78C1FBD8520728BF30C148BFEA
:1001A0000B6070471FB51FBD10B510BD00F06EF895
:1001B0001146FFF7F7FF00F08BFA00F0A0F803B448
:1001C000FFF7F2FF03BC00F033FA00000948804754
:1001D00009480047FEE7FEE7FEE7FEE7FEE7FEE729
:1001E000FEE7FEE7FEE7FEE704480549054A064B41
:1001F00070470000CD0501083101010868000020AA
:100200006806002068020020680200207047000095
:100210000FB4044910B503AA029800F009F810BC05
:100220005DF814FB0000002070477047704770476E
:10023000074B70B50D467B4400F011F80446284684
:1002400000F020F810B14FF0FF3070BD204670BDB7
:100250007B04000001694A1C02610878704700B500
:100260008FB0CDE901310021059105497944CDE9EF
:1002700003101146684600F02EF80FB000BD0000D4
:10028000E5FFFFFF007B00F080007047754600F03F
:100290003FF8AE4605006946534620F00700854604
:1002A00018B020B5FFF7A0FFBDE820404FF00006D2
:1002B0004FF000074FF000084FF0000B21F007014E
:1002C000AC46ACE8C009ACE8C009ACE8C009ACE891
:1002D000C0098D4670472DE9F04106460024D6E955
:1002E0000170F5688046304603E04146B847641C1B
:1002F0003046A8470028F8D12046BDE8F08110B567
:100300000446AFF300802046BDE81040FFF757BF1A
:10031000004870470400002000BFFEE770472DE949
:10032000F04102460025002600200023002400277B
:1003300091F803C00CF00F0591F803C00CF0100CFD
:10034000BCF1000F03D091F802C04CEA050591F80A
:1003500000C0BCF1000F31D0146800202BE04FF03A
:10036000010C0CFA00F3B1F800C00CEA03069E423F
:1003700020D183004FF00F0C0CFA03F7BC4305FAB1
:1003800003FC4CEA040491F803C0BCF1280F06D129
:100390004FF0010C0CFA00FCC2F814C00AE091F80E
:1003A00003C0BCF1480F05D14FF0010C0CFA00FC62
:1003B000C2F810C0401C0828D1D31460B1F800C0A6
:1003C000BCF1FF0F34DD546800202EE000F1080C72
:1003D0004FF0010808FA0CF3B1F800C00CEA03066C
:1003E0009E4221D183004FF00F0C0CFA03F7BC435F
:1003F00005FA03FC4CEA040491F803C0BCF1280F91
:1004000005D100F1080C08FA0CF8C2F8148091F834
:1004100003C0BCF1480F07D100F1080C4FF00108F0
:1004200008FA0CF8C2F81080401C0828CED354609B
:10043000BDE8F081416170470161704700BFFEE790
:1004400008B50121082000F033F80121402000F018
:100450002FF82020ADF8000010208DF803000320B5
:100460008DF8020069460948FFF759FF2020ADF8D2
:10047000000069460648FFF752FF20210348FFF7B6
:10048000DBFF20210248FFF7D7FF08BD000C014029
:100490000018014000BFFEE7704700000249014319
:1004A000024A1160704700000000FA050CED00E000
:1004B00029B1064A92690243044B9A6104E0034A57
:1004C00092698243014B9A6170470000001002401C
:1004D00010B500F001F810BD0CB50020019000909F
:1004E0003348006840F480303149086000BF30482C
:1004F000006800F4003000900198401C01900098C2
:1005000018B90198B0F5A06FF1D12948006800F43E
:10051000003010B10120009001E000200090009810
:10052000012843D12348006840F0100021490860A9
:100530000846006820F0030008600846006840F0A4
:10054000020008601A484068194948600846406837
:1005500048600846406840F480604860084640684B
:1005600020F47C1048600846406840F4E810486079
:100570000846006840F08070086000BF0C480068C2
:1005800000F000700028F9D00948406820F003000E
:10059000074948600846406840F00200486000BFD4
:1005A0000348406800F00C000828F9D10CBD000099
:1005B000001002400020024070474FF0E020006928
:1005C00020F004004FF0E0210861704710B5134897
:1005D000006840F001001149086008464068104971
:1005E00008400E494860084600680E4908400B491B
:1005F00008600846006820F48020086008464068CB
:1006000020F4FE0048604FF41F008860FFF760FF91
:100610004FF000600449086010BD00000010024067
:100620000000FFF8FFFFF6FE08ED00E000BFFEE768
:10063000014600BF7047FF214FF0E022916142F276
:100640002831414351611146096941F001011161AD
:1006500000BF4FF0E021096901F480310029F8D092
:100660004FF0E021096921F001014FF0E022116112
:10067000704730B503460025B3F5E96F03DC184633
:10068000FFF7D9FF15E004E0A3F5E96083B2681C29
:10069000C5B2B3F5E96FF7DA002405E04FF4E9607D
:1006A000FFF7C9FF601CC4B2AC42F7DB1846FFF786
:1006B000C2FF30BD00BF054A128802F04002002A86
:1006C000F9D0C2B2014B1B1D1A807047003801409F
:1006D0001748184908604FF4A060FFF7DFFEFFF7E6
:1006E0006CFFFFF7ADFE20211348FFF7A5FE202188
:1006F0001248FFF7A1FE12A0FFF78AFD17E02021A4
:100700000D48FFF797FE20210C48FFF793FE4FF4AA
:100710004870FFF7AEFF20210748FFF78DFE20212C
:100720000648FFF789FE4FF44870FFF7A2FFE6E79F
:100730000000010808ED00E0000C01400018014035
:10074000466C617368B3CCD0F2B8FCD0C2B3C9B9FF
:10075000A60D0A0074070108000000200400000034
:100760006C010108780701080400002064060000FD
:080770008801010800000000EF
:0400000508010131BC
:00000001FF
