:020000042000DA
:1010000078D60020CD110020991400203D14002036
:101010009514002019130020011900200000000081
:10102000000000000000000000000000DF110020B0
:101030001D13002000000000E3110020FD16002019
:10104000E7110020E7110020E7110020E711002040
:10105000E7110020E7110020E7110020E711002030
:10106000E7110020E7110020E7110020E711002020
:10107000E7110020E7110020E7110020E711002010
:10108000E7110020E7110020E7110020E711002000
:10109000E7110020E7110020E7110020E7110020F0
:1010A000E7110020E7110020E7110020E7110020E0
:1010B000E7110020E7110020E7110020E7110020D0
:1010C000E7110020E7110020E7110020E7110020C0
:1010D000E7110020E7110020E7110020E7110020B0
:1010E000E7110020E7110020E7110020E7110020A0
:1010F000E7110020E7110020E7110020E711002090
:10110000E7110020E7110020E7110020E71100207F
:10111000E7110020E7110020E7110020E71100206F
:10112000E7110020E7110020E7110020E71100205F
:1011300000F002F800F03AF80AA090E8000C8244AF
:101140008344AAF10107DA4501D100F02FF8AFF28C
:10115000090EBAE80F0013F0010F18BFFB1A43F095
:1011600001031847D0080000F0080000103A24BF1F
:1011700078C878C1FAD8520724BF30C830C144BFFC
:1011800004680C607047000000230024002500263E
:10119000103A28BF78C1FBD8520728BF30C148BFDA
:1011A0000B6070471FB51FBD10B510BD00F06EF885
:1011B0001146FFF7F7FF00F0F5FB00F0A0F803B4CD
:1011C000FFF7F2FF03BC00F09DFB000009488047D9
:1011D00009480047FEE7FEE7FEE7FEE7FEE7FEE719
:1011E000FEE7FEE7FEE7FEE704480549054A064B31
:1011F00070470000111700203111002078D0002026
:1012000078D6002078D2002078D2002070470000E5
:101210000FB4044910B503AA029800F009F810BCF5
:101220005DF814FB14D0002070477047704770477A
:10123000074B70B50D467B4400F011F80446284674
:1012400000F020F810B14FF0FF3070BD204670BDA7
:101250004F07000001694A1C02610878704700B519
:101260008FB0CDE901310021059105497944CDE9DF
:1012700003101146684600F02EF80FB000BD0000C4
:10128000E5FFFFFF007B00F080007047754600F02F
:101290003FF8AE4605006946534620F007008546F4
:1012A00018B020B5FFF7A0FFBDE820404FF00006C2
:1012B0004FF000074FF000084FF0000B21F007013E
:1012C000AC46ACE8C009ACE8C009ACE8C009ACE881
:1012D000C0098D4670472DE9F04106460024D6E945
:1012E0000170F5688046304603E04146B847641C0B
:1012F0003046A8470028F8D12046BDE8F08110B557
:101300000446AFF300802046BDE81040FFF757BF0A
:101310000048704718D0002000BFFEE770472DE955
:10132000F04102460025002600200023002400276B
:1013300091F803C00CF00F0591F803C00CF0100CED
:10134000BCF1000F03D091F802C04CEA050591F8FA
:1013500000C0BCF1000F31D0146800202BE04FF02A
:10136000010C0CFA00F3B1F800C00CEA03069E422F
:1013700020D183004FF00F0C0CFA03F7BC4305FAA1
:1013800003FC4CEA040491F803C0BCF1280F06D119
:101390004FF0010C0CFA00FCC2F814C00AE091F8FE
:1013A00003C0BCF1480F05D14FF0010C0CFA00FC52
:1013B000C2F810C0401C0828D1D31460B1F800C096
:1013C000BCF1FF0F34DD546800202EE000F1080C62
:1013D0004FF0010808FA0CF3B1F800C00CEA03065C
:1013E0009E4221D183004FF00F0C0CFA03F7BC434F
:1013F00005FA03FC4CEA040491F803C0BCF1280F81
:1014000005D100F1080C08FA0CF8C2F8148091F824
:1014100003C0BCF1480F07D100F1080C4FF00108E0
:1014200008FA0CF8C2F81080401C0828CED354608B
:10143000BDE8F081416170470161704700BFFEE780
:1014400008B50121082000F06BF80121402000F0D0
:1014500067F82020ADF8000010208DF8030003206D
:101460008DF8020069460948FFF759FF2020ADF8C2
:10147000000069460648FFF752FF20210348FFF7A6
:10148000DBFF20210248FFF7D7FF08BD000C014019
:101490000018014000BFFEE77047000070B5002152
:1014A00000230F22C47804B3154C246804F4E064CC
:1014B000C4F5E064210AC1F10403CA40447804FA87
:1014C00003F184781440214309010E4C0678A1559C
:1014D000047804F01F050124AC4005786D11AD00BF
:1014E00005F1E025C5F8004109E0047804F01F0586
:1014F0000124AC40044D0678761145F8264070BDB5
:101500000CED00E000E400E080E100E0024901436E
:10151000024A1160704700000000FA050CED00E07F
:1015200029B1064A92690243044B9A6104E0034AD6
:1015300092698243014B9A6170470000001002409B
:1015400030B500210022002400232D4D6D6805F0E8
:101550000C0121B1042905D0082923D105E0294D2A
:10156000056022E0274D05601FE0254D6D6805F4FC
:101570007012234D6D6805F48034022505EB92420C
:101580001CB9214D554305600BE01D4D6D6805F4F8
:1015900000351DB11C4D5543056002E0194D554302
:1015A000056002E0174D056000BF00BF144D6D6877
:1015B00005F0F0010909154D6B5C0568DD404560DB
:1015C0000F4D6D6805F4E061090A104D6B5C4568CC
:1015D000DD4085600A4D6D6805F46051C90A0B4D08
:1015E0006B5C4568DD40C560054D6D6805F44041A4
:1015F000890B074D6B5CC568B5FBF3F5056130BD24
:101600000010024000127A0000093D0000D00020C6
:1016100010D0002010B500F001F810BD0CB500206E
:10162000019000903348006840F4803031490860F0
:1016300000BF3048006800F4003000900198401C62
:101640000190009818B90198B0F5A06FF1D1294820
:10165000006800F4003010B10120009001E000208B
:1016600000900098012843D12348006840F0100002
:10167000214908600846006820F003000860084619
:10168000006840F0020008601A4840681949486044
:101690000846406848600846406840F480604860FA
:1016A0000846406820F47C1048600846406840F4D2
:1016B000E81048600846006840F08070086000BF8D
:1016C0000C48006800F000700028F9D00948406814
:1016D00020F00300074948600846406840F00200D7
:1016E000486000BF0348406800F00C000828F9D1AA
:1016F0000CBD0000001002400020024070474FF077
:10170000E020006920F004004FF0E02108617047FC
:1017100010B51348006840F0010011490860084600
:101720004068104908400E494860084600680E4964
:1017300008400B4908600846006820F480200860D3
:101740000846406820F4FE0048604FF41F0088609F
:10175000FFF760FF4FF000600449086010BD000013
:10176000001002400000FFF8FFFFF6FE08ED00E069
:1017700010B586B0044601210420FFF7D1FE0121F7
:101780008803FFF7CDFE4FF40070ADF81400182069
:101790008DF8170003208DF8160005A91A48FFF7E9
:1017A000BEFD4FF48060ADF8140004208DF81700E2
:1017B00003208DF8160005A91348FFF7B0FD01942A
:1017C0000020ADF80800ADF80A00ADF80C00ADF847
:1017D00010000C20ADF80E0001A90C4800F024F810
:1017E00025208DF8000003208DF801008DF80200FF
:1017F00001208DF803006846FFF750FE01210348E1
:1018000000F006F806B010BD0008014000380140A5
:1018100021B1828942F40052828104E082894DF62E
:10182000FF731A40828170472DE9F04786B0054664
:101830000E460024A24600BFA1460027B08900B191
:1018400000BF2F462C8A4CF6FF700440F0880443FA
:101850002C82AC894EF6F3100440B08831890843DD
:10186000718908430443AC81AC8A4FF6FF400440C1
:10187000B0890443AC8201A8FFF762FE1F4887428B
:1018800002D1DDF810A001E0DDF80CA0A88900F479
:10189000004040B10AEBCA0000EB0A103168490071
:1018A000B0FBF1F807E00AEBCA0000EB0A10316860
:1018B0008900B0FBF1F86420B8FBF0F004012009C6
:1018C000642101FB1089A88900F4004040B1322056
:1018D00000EBC900B0FBF1F000F00700044308E0A2
:1018E000322000EB09106421B0FBF1F000F00F0092
:1018F00004432C8106B0BDE8F087000000380140A9
:1019000000BFFEE7014600BF7047FF214FF0E02215
:10191000916142F22831414351611146096941F018
:101920000101116100BF4FF0E021096901F480312C
:101930000029F8D04FF0E021096921F001014FF0B2
:10194000E0221161704730B503460025B3F5E96F19
:1019500003DC1846FFF7D9FF15E004E0A3F5E960C2
:1019600083B2681CC5B2B3F5E96FF7DA002405E06D
:101970004FF4E960FFF7C9FF601CC4B2AC42F7DB6B
:101980001846FFF7C2FF30BD00BF054A128802F0BB
:101990004002002AF9D0C2B2014B1B1D1A807047C9
:1019A0000038014019481A4908604FF4A060FFF759
:1019B000ADFD4FF4E130FFF7DBFEFFF7A0FEFFF7D0
:1019C0003FFD20211348FFF737FD20211248FFF784
:1019D00033FD12A0FFF71CFC17E020210D48FFF794
:1019E00029FD20210C48FFF727FD4FF44870FFF731
:1019F000AAFF20210748FFF71FFD20210648FFF717
:101A000019FD4FF44870FFF79EFFE6E70010002035
:101A100008ED00E0000C0140001801400D0A53528F
:101A2000414DB3CCD0F2B8FCD0C2B3C9B9A60D0AAF
:101A300000000000541A002000D000201800000010
:101A40006C1100206C1A002018D0002060060000E5
:101A500088110020000000000102030401020304B9
:0C1A600006070809020406080000000048
:040000052000113195
:00000001FF
